{
  "address": "0x5FbDB2315678afecb367f032d93F642f64180aa3",
  "abi": [
    {
      "anonymous": false,
      "inputs": [
        {
          "indexed": false,
          "internalType": "uint8",
          "name": "version",
          "type": "uint8"
        }
      ],
      "name": "Initialized",
      "type": "event"
    },
    {
      "inputs": [
        {
          "internalType": "address",
          "name": "_tenderizer",
          "type": "address"
        }
      ],
      "name": "depositChecker",
      "outputs": [
        {
          "internalType": "bool",
          "name": "canExec",
          "type": "bool"
        },
        {
          "internalType": "bytes",
          "name": "execPayload",
          "type": "bytes"
        }
      ],
      "stateMutability": "view",
      "type": "function"
    },
    {
      "inputs": [],
      "name": "initialize",
      "outputs": [],
      "stateMutability": "nonpayable",
      "type": "function"
    },
    {
      "inputs": [
        {
          "internalType": "address",
          "name": "_tenderizer",
          "type": "address"
        }
      ],
      "name": "rebaseChecker",
      "outputs": [
        {
          "internalType": "bool",
          "name": "canExec",
          "type": "bool"
        },
        {
          "internalType": "bytes",
          "name": "execPayload",
          "type": "bytes"
        }
      ],
      "stateMutability": "view",
      "type": "function"
    },
    {
      "inputs": [
        {
          "internalType": "address",
          "name": "_tenderizer",
          "type": "address"
        },
        {
          "internalType": "contract IERC20",
          "name": "_steak",
          "type": "address"
        },
        {
          "internalType": "address",
          "name": "_stakingContract",
          "type": "address"
        },
        {
          "internalType": "uint256",
          "name": "_depositInterval",
          "type": "uint256"
        },
        {
          "internalType": "uint256",
          "name": "_depositThreshold",
          "type": "uint256"
        },
        {
          "internalType": "uint256",
          "name": "_rebaseInternval",
          "type": "uint256"
        },
        {
          "internalType": "uint256",
          "name": "_rebaseThreshold",
          "type": "uint256"
        }
      ],
      "name": "register",
      "outputs": [],
      "stateMutability": "nonpayable",
      "type": "function"
    },
    {
      "inputs": [
        {
          "internalType": "address",
          "name": "_gov",
          "type": "address"
        }
      ],
      "name": "setGov",
      "outputs": [],
      "stateMutability": "nonpayable",
      "type": "function"
    }
  ],
  "transactionHash": "0x7049c11c87068ab74ed134c62025bf778544aaaf519d69338cd772fbcd0d5e58",
  "args": [],
  "numDeployments": 1,
  "solcInputHash": "6dc4f23c49c35e07b33807f19ad5a23e",
  "bytecode": "0x608060405234801561001057600080fd5b50611723806100206000396000f3fe608060405234801561001057600080fd5b50600436106100575760003560e01c80636fae2d7a1461005c57806370fae560146100785780638129fc1c146100a9578063a679912f146100b3578063cfad57a2146100e4575b600080fd5b61007660048036038101906100719190611109565b610100565b005b610092600480360381019061008d91906110b7565b6102d7565b6040516100a09291906112fe565b60405180910390f35b6100b161052b565b005b6100cd60048036038101906100c891906110b7565b6105f8565b6040516100db9291906112fe565b60405180910390f35b6100fe60048036038101906100f991906110b7565b610c4c565b005b600260009054906101000a900473ffffffffffffffffffffffffffffffffffffffff1673ffffffffffffffffffffffffffffffffffffffff163373ffffffffffffffffffffffffffffffffffffffff161461015a57600080fd5b6040518061010001604052808773ffffffffffffffffffffffffffffffffffffffff1681526020018673ffffffffffffffffffffffffffffffffffffffff168152602001858152602001848152602001600081526020018381526020018281526020016000815250600160008973ffffffffffffffffffffffffffffffffffffffff1673ffffffffffffffffffffffffffffffffffffffff16815260200190815260200160002060008201518160000160006101000a81548173ffffffffffffffffffffffffffffffffffffffff021916908373ffffffffffffffffffffffffffffffffffffffff16021790555060208201518160010160006101000a81548173ffffffffffffffffffffffffffffffffffffffff021916908373ffffffffffffffffffffffffffffffffffffffff16021790555060408201518160020155606082015181600301556080820151816004015560a0820151816005015560c0820151816006015560e0820151816007015590505050505050505050565b600060606000600160008573ffffffffffffffffffffffffffffffffffffffff1673ffffffffffffffffffffffffffffffffffffffff168152602001908152602001600020604051806101000160405290816000820160009054906101000a900473ffffffffffffffffffffffffffffffffffffffff1673ffffffffffffffffffffffffffffffffffffffff1673ffffffffffffffffffffffffffffffffffffffff1681526020016001820160009054906101000a900473ffffffffffffffffffffffffffffffffffffffff1673ffffffffffffffffffffffffffffffffffffffff1673ffffffffffffffffffffffffffffffffffffffff168152602001600282015481526020016003820154815260200160048201548152602001600582015481526020016006820154815260200160078201548152505090506000816000015173ffffffffffffffffffffffffffffffffffffffff166370a08231866040518263ffffffff1660e01b815260040161045191906112ba565b60206040518083038186803b15801561046957600080fd5b505afa15801561047d573d6000803e3d6000fd5b505050506040513d601f19601f820116820180604052508101906104a191906111f9565b905060004290508260600151821180156104cd575080836040015184608001516104cb91906113d6565b115b15610507578083608001818152505060019450816040516020016104f19190611369565b6040516020818303038152906040529350610523565b6000945060405160200160405160208183030381529060405293505b505050915091565b60006105376001610cea565b9050801561055b576001600060016101000a81548160ff0219169083151502179055505b33600260006101000a81548173ffffffffffffffffffffffffffffffffffffffff021916908373ffffffffffffffffffffffffffffffffffffffff16021790555080156105f55760008060016101000a81548160ff0219169083151502179055507f7f26b83ff96e1f2b6a682f133852f6798a09c465da95921460cefb384740249860016040516105ec919061132e565b60405180910390a15b50565b6000606060405160200160405160208183030381529060405290506000600160008573ffffffffffffffffffffffffffffffffffffffff1673ffffffffffffffffffffffffffffffffffffffff168152602001908152602001600020604051806101000160405290816000820160009054906101000a900473ffffffffffffffffffffffffffffffffffffffff1673ffffffffffffffffffffffffffffffffffffffff1673ffffffffffffffffffffffffffffffffffffffff1681526020016001820160009054906101000a900473ffffffffffffffffffffffffffffffffffffffff1673ffffffffffffffffffffffffffffffffffffffff1673ffffffffffffffffffffffffffffffffffffffff16815260200160028201548152602001600382015481526020016004820154815260200160058201548152602001600682015481526020016007820154815250509050600084905060008173ffffffffffffffffffffffffffffffffffffffff16633ae732596040518163ffffffff1660e01b815260040160206040518083038186803b15801561079757600080fd5b505afa1580156107ab573d6000803e3d6000fd5b505050506040513d601f19601f820116820180604052508101906107cf91906111f9565b905060008273ffffffffffffffffffffffffffffffffffffffff1663d70754ec6040518163ffffffff1660e01b815260040160206040518083038186803b15801561081957600080fd5b505afa15801561082d573d6000803e3d6000fd5b505050506040513d601f19601f8201168201806040525081019061085191906110e0565b9050600073e66f3ab2f5621fe12ebf37754e1af6d05b329a0773ffffffffffffffffffffffffffffffffffffffff168873ffffffffffffffffffffffffffffffffffffffff161415610a015760008560200151905060008173ffffffffffffffffffffffffffffffffffffffff166315049a5a85306040518363ffffffff1660e01b81526004016108e39291906112d5565b60606040518083038186803b1580156108fb57600080fd5b505afa15801561090f573d6000803e3d6000fd5b505050506040513d601f19601f8201168201806040525081019061093391906111d0565b905060008273ffffffffffffffffffffffffffffffffffffffff166392511c8f866040518263ffffffff1660e01b815260040161097091906112ba565b60c06040518083038186803b15801561098857600080fd5b505afa15801561099c573d6000803e3d6000fd5b505050506040513d601f19601f820116820180604052508101906109c091906111a7565b905060008260000151905060008260a0015190506000836080015190508181846109ea919061145d565b6109f4919061142c565b9650505050505050610bef565b7350dce4ca01c15188105971339c39da49c2a0c24973ffffffffffffffffffffffffffffffffffffffff168873ffffffffffffffffffffffffffffffffffffffff161415610ae3576000856020015190508073ffffffffffffffffffffffffffffffffffffffff1663b0303b75306040518263ffffffff1660e01b8152600401610a8b91906112ba565b60206040518083038186803b158015610aa357600080fd5b505afa158015610ab7573d6000803e3d6000fd5b505050506040513d601f19601f82011682018060405250810190610adb91906111f9565b915050610bee565b73e07c344cb6a2af8fdf1d64c67d4c33a133fe728973ffffffffffffffffffffffffffffffffffffffff168873ffffffffffffffffffffffffffffffffffffffff161415610bed5760008560200151905060008173ffffffffffffffffffffffffffffffffffffffff166370a08231306040518263ffffffff1660e01b8152600401610b6f91906112ba565b60206040518083038186803b158015610b8757600080fd5b505afa158015610b9b573d6000803e3d6000fd5b505050506040513d601f19601f82011682018060405250810190610bbf91906111f9565b9050610bca82610dda565b610bd383610e7e565b82610bde919061145d565b610be8919061142c565b925050505b5b5b60004290508560c0015184610c0491906113d6565b82118015610c245750808660a001518760e00151610c2291906113d6565b115b15610c3c57808660e001818152505060019750610c41565b600097505b505050505050915091565b600260009054906101000a900473ffffffffffffffffffffffffffffffffffffffff1673ffffffffffffffffffffffffffffffffffffffff163373ffffffffffffffffffffffffffffffffffffffff1614610ca657600080fd5b80600260006101000a81548173ffffffffffffffffffffffffffffffffffffffff021916908373ffffffffffffffffffffffffffffffffffffffff16021790555050565b60008060019054906101000a900460ff1615610d615760018260ff16148015610d195750610d1730610f1a565b155b610d58576040517f08c379a0000000000000000000000000000000000000000000000000000000008152600401610d4f90611349565b60405180910390fd5b60009050610dd5565b8160ff1660008054906101000a900460ff1660ff1610610db6576040517f08c379a0000000000000000000000000000000000000000000000000000000008152600401610dad90611349565b60405180910390fd5b816000806101000a81548160ff021916908360ff160217905550600190505b919050565b600060088273ffffffffffffffffffffffffffffffffffffffff16635c5f7dae6040518163ffffffff1660e01b815260040160206040518083038186803b158015610e2457600080fd5b505afa158015610e38573d6000803e3d6000fd5b505050506040513d601f19601f82011682018060405250810190610e5c91906111f9565b10610e74576c01431e0fae6d7217caa0000000610e77565b60645b9050919050565b6000808273ffffffffffffffffffffffffffffffffffffffff16633ba0b9a96040518163ffffffff1660e01b815260040160206040518083038186803b158015610ec757600080fd5b505afa158015610edb573d6000803e3d6000fd5b505050506040513d601f19601f82011682018060405250810190610eff91906111f9565b905060008114610f0f5780610f12565b60015b915050919050565b6000808273ffffffffffffffffffffffffffffffffffffffff163b119050919050565b600081359050610f4c81611691565b92915050565b600081519050610f6181611691565b92915050565b600081359050610f76816116a8565b92915050565b600060c08284031215610f8e57600080fd5b610f9860c0611384565b90506000610fa8848285016110a2565b6000830152506020610fbc848285016110a2565b6020830152506040610fd0848285016110a2565b6040830152506060610fe48482850161108d565b6060830152506080610ff88482850161108d565b60808301525060a061100c8482850161108d565b60a08301525092915050565b60006060828403121561102a57600080fd5b6110346060611384565b905060006110448482850161108d565b60008301525060206110588482850161108d565b602083015250604061106c8482850161108d565b60408301525092915050565b600081359050611087816116bf565b92915050565b60008151905061109c816116bf565b92915050565b6000815190506110b1816116d6565b92915050565b6000602082840312156110c957600080fd5b60006110d784828501610f3d565b91505092915050565b6000602082840312156110f257600080fd5b600061110084828501610f52565b91505092915050565b600080600080600080600060e0888a03121561112457600080fd5b60006111328a828b01610f3d565b97505060206111438a828b01610f67565b96505060406111548a828b01610f3d565b95505060606111658a828b01611078565b94505060806111768a828b01611078565b93505060a06111878a828b01611078565b92505060c06111988a828b01611078565b91505092959891949750929550565b600060c082840312156111b957600080fd5b60006111c784828501610f7c565b91505092915050565b6000606082840312156111e257600080fd5b60006111f084828501611018565b91505092915050565b60006020828403121561120b57600080fd5b60006112198482850161108d565b91505092915050565b61122b816114b7565b82525050565b61123a816114c9565b82525050565b600061124b826113a9565b61125581856113b4565b9350611265818560208601611540565b61126e81611631565b840191505092915050565b6112828161152e565b82525050565b6000611295602e836113c5565b91506112a082611642565b604082019050919050565b6112b481611507565b82525050565b60006020820190506112cf6000830184611222565b92915050565b60006040820190506112ea6000830185611222565b6112f76020830184611222565b9392505050565b60006040820190506113136000830185611231565b81810360208301526113258184611240565b90509392505050565b60006020820190506113436000830184611279565b92915050565b6000602082019050818103600083015261136281611288565b9050919050565b600060208201905061137e60008301846112ab565b92915050565b600061138e61139f565b905061139a8282611573565b919050565b6000604051905090565b600081519050919050565b600082825260208201905092915050565b600082825260208201905092915050565b60006113e182611507565b91506113ec83611507565b9250827fffffffffffffffffffffffffffffffffffffffffffffffffffffffffffffffff03821115611421576114206115a4565b5b828201905092915050565b600061143782611507565b915061144283611507565b925082611452576114516115d3565b5b828204905092915050565b600061146882611507565b915061147383611507565b9250817fffffffffffffffffffffffffffffffffffffffffffffffffffffffffffffffff04831182151516156114ac576114ab6115a4565b5b828202905092915050565b60006114c2826114e7565b9050919050565b60008115159050919050565b60006114e0826114b7565b9050919050565b600073ffffffffffffffffffffffffffffffffffffffff82169050919050565b6000819050919050565b600063ffffffff82169050919050565b600060ff82169050919050565b600061153982611521565b9050919050565b60005b8381101561155e578082015181840152602081019050611543565b8381111561156d576000848401525b50505050565b61157c82611631565b810181811067ffffffffffffffff8211171561159b5761159a611602565b5b80604052505050565b7f4e487b7100000000000000000000000000000000000000000000000000000000600052601160045260246000fd5b7f4e487b7100000000000000000000000000000000000000000000000000000000600052601260045260246000fd5b7f4e487b7100000000000000000000000000000000000000000000000000000000600052604160045260246000fd5b6000601f19601f8301169050919050565b7f496e697469616c697a61626c653a20636f6e747261637420697320616c72656160008201527f647920696e697469616c697a6564000000000000000000000000000000000000602082015250565b61169a816114b7565b81146116a557600080fd5b50565b6116b1816114d5565b81146116bc57600080fd5b50565b6116c881611507565b81146116d357600080fd5b50565b6116df81611511565b81146116ea57600080fd5b5056fea2646970667358221220eef686dfe456bbda4de964caf0dd3f94e4f951b11f1325a9aa2faa21f8f01ff564736f6c63430008040033",
  "devdoc": {
    "kind": "dev",
    "methods": {},
    "version": 1
  },
  "userdoc": {
    "kind": "user",
    "methods": {},
    "version": 1
  },
  "storageLayout": {
    "storage": [
      {
        "astId": 6,
        "contract": "contracts/MainnetResolver.sol:MainnetResolver",
        "label": "_initialized",
        "offset": 0,
        "slot": "0",
        "type": "t_uint8"
      },
      {
        "astId": 9,
        "contract": "contracts/MainnetResolver.sol:MainnetResolver",
        "label": "_initializing",
        "offset": 1,
        "slot": "0",
        "type": "t_bool"
      },
      {
        "astId": 594,
        "contract": "contracts/MainnetResolver.sol:MainnetResolver",
        "label": "protocols",
        "offset": 0,
        "slot": "1",
        "type": "t_mapping(t_address,t_struct(Protocol)589_storage)"
      },
      {
        "astId": 596,
        "contract": "contracts/MainnetResolver.sol:MainnetResolver",
        "label": "gov",
        "offset": 0,
        "slot": "2",
        "type": "t_address"
      }
    ],
    "types": {
      "t_address": {
        "encoding": "inplace",
        "label": "address",
        "numberOfBytes": "20"
      },
      "t_bool": {
        "encoding": "inplace",
        "label": "bool",
        "numberOfBytes": "1"
      },
      "t_contract(IERC20)219": {
        "encoding": "inplace",
        "label": "contract IERC20",
        "numberOfBytes": "20"
      },
      "t_mapping(t_address,t_struct(Protocol)589_storage)": {
        "encoding": "mapping",
        "key": "t_address",
        "label": "mapping(address => struct MainnetResolver.Protocol)",
        "numberOfBytes": "32",
        "value": "t_struct(Protocol)589_storage"
      },
      "t_struct(Protocol)589_storage": {
        "encoding": "inplace",
        "label": "struct MainnetResolver.Protocol",
        "members": [
          {
            "astId": 574,
            "contract": "contracts/MainnetResolver.sol:MainnetResolver",
            "label": "steak",
            "offset": 0,
            "slot": "0",
            "type": "t_contract(IERC20)219"
          },
          {
            "astId": 576,
            "contract": "contracts/MainnetResolver.sol:MainnetResolver",
            "label": "stakingContract",
            "offset": 0,
            "slot": "1",
            "type": "t_address"
          },
          {
            "astId": 578,
            "contract": "contracts/MainnetResolver.sol:MainnetResolver",
            "label": "depositInterval",
            "offset": 0,
            "slot": "2",
            "type": "t_uint256"
          },
          {
            "astId": 580,
            "contract": "contracts/MainnetResolver.sol:MainnetResolver",
            "label": "depositThreshold",
            "offset": 0,
            "slot": "3",
            "type": "t_uint256"
          },
          {
            "astId": 582,
            "contract": "contracts/MainnetResolver.sol:MainnetResolver",
            "label": "lastDeposit",
            "offset": 0,
            "slot": "4",
            "type": "t_uint256"
          },
          {
            "astId": 584,
            "contract": "contracts/MainnetResolver.sol:MainnetResolver",
            "label": "rebaseInternval",
            "offset": 0,
            "slot": "5",
            "type": "t_uint256"
          },
          {
            "astId": 586,
            "contract": "contracts/MainnetResolver.sol:MainnetResolver",
            "label": "rebaseThreshold",
            "offset": 0,
            "slot": "6",
            "type": "t_uint256"
          },
          {
            "astId": 588,
            "contract": "contracts/MainnetResolver.sol:MainnetResolver",
            "label": "lastRebase",
            "offset": 0,
            "slot": "7",
            "type": "t_uint256"
          }
        ],
        "numberOfBytes": "256"
      },
      "t_uint256": {
        "encoding": "inplace",
        "label": "uint256",
        "numberOfBytes": "32"
      },
      "t_uint8": {
        "encoding": "inplace",
        "label": "uint8",
        "numberOfBytes": "1"
      }
    }
  }
}