{
  "address": "0x5D81f2195Edfc63a020fDeF1f15105AdA28De4E0",
  "abi": [
    {
      "anonymous": false,
      "inputs": [
        {
          "indexed": false,
          "internalType": "uint8",
          "name": "version",
          "type": "uint8"
        }
      ],
      "name": "Initialized",
      "type": "event"
    },
    {
      "inputs": [
        {
          "internalType": "address",
          "name": "_tenderizer",
          "type": "address"
        }
      ],
      "name": "depositChecker",
      "outputs": [
        {
          "internalType": "bool",
          "name": "canExec",
          "type": "bool"
        },
        {
          "internalType": "bytes",
          "name": "execPayload",
          "type": "bytes"
        }
      ],
      "stateMutability": "nonpayable",
      "type": "function"
    },
    {
      "inputs": [],
      "name": "initialize",
      "outputs": [],
      "stateMutability": "nonpayable",
      "type": "function"
    },
    {
      "inputs": [
        {
          "internalType": "address",
          "name": "_tenderizer",
          "type": "address"
        }
      ],
      "name": "rebaseChecker",
      "outputs": [
        {
          "internalType": "bool",
          "name": "canExec",
          "type": "bool"
        },
        {
          "internalType": "bytes",
          "name": "execPayload",
          "type": "bytes"
        }
      ],
      "stateMutability": "nonpayable",
      "type": "function"
    },
    {
      "inputs": [
        {
          "internalType": "string",
          "name": "_name",
          "type": "string"
        },
        {
          "internalType": "address",
          "name": "_tenderizer",
          "type": "address"
        },
        {
          "internalType": "contract IERC20",
          "name": "_steak",
          "type": "address"
        },
        {
          "internalType": "address",
          "name": "_stakingContract",
          "type": "address"
        },
        {
          "internalType": "uint256",
          "name": "_depositInterval",
          "type": "uint256"
        },
        {
          "internalType": "uint256",
          "name": "_depositThreshold",
          "type": "uint256"
        },
        {
          "internalType": "uint256",
          "name": "_rebaseInternval",
          "type": "uint256"
        },
        {
          "internalType": "uint256",
          "name": "_rebaseThreshold",
          "type": "uint256"
        }
      ],
      "name": "register",
      "outputs": [],
      "stateMutability": "nonpayable",
      "type": "function"
    },
    {
      "inputs": [
        {
          "internalType": "address",
          "name": "_gov",
          "type": "address"
        }
      ],
      "name": "setGov",
      "outputs": [],
      "stateMutability": "nonpayable",
      "type": "function"
    }
  ],
  "transactionHash": "0xe0a925c5b9e79adaa980b545e86b858f8e0d4d02585b4b3fbb6ea752789cac4a",
  "args": [],
  "numDeployments": 1,
  "solcInputHash": "64eef6c6165ba94b115a0e97cb9e417c",
  "bytecode": "0x608060405234801561001057600080fd5b506118c6806100206000396000f3fe608060405234801561001057600080fd5b50600436106100575760003560e01c80631ef4a23d1461005c57806370fae560146100785780638129fc1c146100a9578063a679912f146100b3578063cfad57a2146100e4575b600080fd5b61007660048036038101906100719190611129565b610100565b005b610092600480360381019061008d91906110d7565b6102fc565b6040516100a09291906113e0565b60405180910390f35b6100b161048a565b005b6100cd60048036038101906100c891906110d7565b610557565b6040516100db9291906113e0565b60405180910390f35b6100fe60048036038101906100f991906110d7565b610b61565b005b600260009054906101000a900473ffffffffffffffffffffffffffffffffffffffff1673ffffffffffffffffffffffffffffffffffffffff163373ffffffffffffffffffffffffffffffffffffffff161461015a57600080fd5b6040518061012001604052808981526020018773ffffffffffffffffffffffffffffffffffffffff1681526020018673ffffffffffffffffffffffffffffffffffffffff168152602001858152602001848152602001600081526020018381526020018281526020016000815250600160008973ffffffffffffffffffffffffffffffffffffffff1673ffffffffffffffffffffffffffffffffffffffff1681526020019081526020016000206000820151816000019080519060200190610223929190610e52565b5060208201518160010160006101000a81548173ffffffffffffffffffffffffffffffffffffffff021916908373ffffffffffffffffffffffffffffffffffffffff16021790555060408201518160020160006101000a81548173ffffffffffffffffffffffffffffffffffffffff021916908373ffffffffffffffffffffffffffffffffffffffff160217905550606082015181600301556080820151816004015560a0820151816005015560c0820151816006015560e0820151816007015561010082015181600801559050505050505050505050565b600060606000600160008573ffffffffffffffffffffffffffffffffffffffff1673ffffffffffffffffffffffffffffffffffffffff168152602001908152602001600020905060008160010160009054906101000a900473ffffffffffffffffffffffffffffffffffffffff1673ffffffffffffffffffffffffffffffffffffffff166370a08231866040518263ffffffff1660e01b81526004016103a2919061139c565b60206040518083038186803b1580156103ba57600080fd5b505afa1580156103ce573d6000803e3d6000fd5b505050506040513d601f19601f820116820180604052508101906103f29190611245565b9050600042905082600401548211801561042d575060008360050154148061042c5750808360030154846005015461042a9190611509565b105b5b15610466578083600501819055506001945081604051602001610450919061144b565b6040516020818303038152906040529350610482565b6000945060405160200160405160208183030381529060405293505b505050915091565b60006104966001610bff565b905080156104ba576001600060016101000a81548160ff0219169083151502179055505b33600260006101000a81548173ffffffffffffffffffffffffffffffffffffffff021916908373ffffffffffffffffffffffffffffffffffffffff16021790555080156105545760008060016101000a81548160ff0219169083151502179055507f7f26b83ff96e1f2b6a682f133852f6798a09c465da95921460cefb3847402498600160405161054b9190611410565b60405180910390a15b50565b6000606060405160200160405160208183030381529060405290506000600160008573ffffffffffffffffffffffffffffffffffffffff1673ffffffffffffffffffffffffffffffffffffffff1681526020019081526020016000209050600084905060008173ffffffffffffffffffffffffffffffffffffffff16633ae732596040518163ffffffff1660e01b815260040160206040518083038186803b15801561060257600080fd5b505afa158015610616573d6000803e3d6000fd5b505050506040513d601f19601f8201168201806040525081019061063a9190611245565b905060006040518060400160405280600581526020017f4772617068000000000000000000000000000000000000000000000000000000815250805190602001208460000160405161068c9190611385565b604051809103902014156108a15760008373ffffffffffffffffffffffffffffffffffffffff1663d70754ec6040518163ffffffff1660e01b815260040160206040518083038186803b1580156106e257600080fd5b505afa1580156106f6573d6000803e3d6000fd5b505050506040513d601f19601f8201168201806040525081019061071a9190611100565b905060008560020160009054906101000a900473ffffffffffffffffffffffffffffffffffffffff16905060008173ffffffffffffffffffffffffffffffffffffffff166315049a5a84306040518363ffffffff1660e01b81526004016107829291906113b7565b60606040518083038186803b15801561079a57600080fd5b505afa1580156107ae573d6000803e3d6000fd5b505050506040513d601f19601f820116820180604052508101906107d2919061121c565b905060008273ffffffffffffffffffffffffffffffffffffffff166392511c8f856040518263ffffffff1660e01b815260040161080f919061139c565b60c06040518083038186803b15801561082757600080fd5b505afa15801561083b573d6000803e3d6000fd5b505050506040513d601f19601f8201168201806040525081019061085f91906111f3565b905060008260000151905060008260a0015190506000836080015190508181846108899190611590565b610893919061155f565b975050505050505050610af7565b6040518060400160405280600681526020017f417564697573000000000000000000000000000000000000000000000000000081525080519060200120846000016040516108ef9190611385565b604051809103902014156109b75760008460020160009054906101000a900473ffffffffffffffffffffffffffffffffffffffff1690508073ffffffffffffffffffffffffffffffffffffffff1663b0303b75306040518263ffffffff1660e01b815260040161095f919061139c565b60206040518083038186803b15801561097757600080fd5b505afa15801561098b573d6000803e3d6000fd5b505050506040513d601f19601f820116820180604052508101906109af9190611245565b915050610af6565b6040518060400160405280600581526020017f4d617469630000000000000000000000000000000000000000000000000000008152508051906020012084600001604051610a059190611385565b60405180910390201415610af55760008460020160009054906101000a900473ffffffffffffffffffffffffffffffffffffffff16905060008173ffffffffffffffffffffffffffffffffffffffff166370a08231306040518263ffffffff1660e01b8152600401610a77919061139c565b60206040518083038186803b158015610a8f57600080fd5b505afa158015610aa3573d6000803e3d6000fd5b505050506040513d601f19601f82011682018060405250810190610ac79190611245565b9050610ad282610cef565b610adb83610d93565b82610ae69190611590565b610af0919061155f565b925050505b5b5b6000429050846007015483610b0c9190611509565b82118015610b3b5750600085600801541480610b3a57508085600601548660080154610b389190611509565b105b5b15610b525780856008018190555060019650610b57565b600096505b5050505050915091565b600260009054906101000a900473ffffffffffffffffffffffffffffffffffffffff1673ffffffffffffffffffffffffffffffffffffffff163373ffffffffffffffffffffffffffffffffffffffff1614610bbb57600080fd5b80600260006101000a81548173ffffffffffffffffffffffffffffffffffffffff021916908373ffffffffffffffffffffffffffffffffffffffff16021790555050565b60008060019054906101000a900460ff1615610c765760018260ff16148015610c2e5750610c2c30610e2f565b155b610c6d576040517f08c379a0000000000000000000000000000000000000000000000000000000008152600401610c649061142b565b60405180910390fd5b60009050610cea565b8160ff1660008054906101000a900460ff1660ff1610610ccb576040517f08c379a0000000000000000000000000000000000000000000000000000000008152600401610cc29061142b565b60405180910390fd5b816000806101000a81548160ff021916908360ff160217905550600190505b919050565b600060088273ffffffffffffffffffffffffffffffffffffffff16635c5f7dae6040518163ffffffff1660e01b815260040160206040518083038186803b158015610d3957600080fd5b505afa158015610d4d573d6000803e3d6000fd5b505050506040513d601f19601f82011682018060405250810190610d719190611245565b10610d89576c01431e0fae6d7217caa0000000610d8c565b60645b9050919050565b6000808273ffffffffffffffffffffffffffffffffffffffff16633ba0b9a96040518163ffffffff1660e01b815260040160206040518083038186803b158015610ddc57600080fd5b505afa158015610df0573d6000803e3d6000fd5b505050506040513d601f19601f82011682018060405250810190610e149190611245565b905060008114610e245780610e27565b60015b915050919050565b6000808273ffffffffffffffffffffffffffffffffffffffff163b119050919050565b828054610e5e906116b5565b90600052602060002090601f016020900481019282610e805760008555610ec7565b82601f10610e9957805160ff1916838001178555610ec7565b82800160010185558215610ec7579182015b82811115610ec6578251825591602001919060010190610eab565b5b509050610ed49190610ed8565b5090565b5b80821115610ef1576000816000905550600101610ed9565b5090565b6000610f08610f038461148b565b611466565b905082815260208101848484011115610f2057600080fd5b610f2b848285611673565b509392505050565b600081359050610f4281611834565b92915050565b600081519050610f5781611834565b92915050565b600081359050610f6c8161184b565b92915050565b600082601f830112610f8357600080fd5b8135610f93848260208601610ef5565b91505092915050565b600060c08284031215610fae57600080fd5b610fb860c0611466565b90506000610fc8848285016110c2565b6000830152506020610fdc848285016110c2565b6020830152506040610ff0848285016110c2565b6040830152506060611004848285016110ad565b6060830152506080611018848285016110ad565b60808301525060a061102c848285016110ad565b60a08301525092915050565b60006060828403121561104a57600080fd5b6110546060611466565b90506000611064848285016110ad565b6000830152506020611078848285016110ad565b602083015250604061108c848285016110ad565b60408301525092915050565b6000813590506110a781611862565b92915050565b6000815190506110bc81611862565b92915050565b6000815190506110d181611879565b92915050565b6000602082840312156110e957600080fd5b60006110f784828501610f33565b91505092915050565b60006020828403121561111257600080fd5b600061112084828501610f48565b91505092915050565b600080600080600080600080610100898b03121561114657600080fd5b600089013567ffffffffffffffff81111561116057600080fd5b61116c8b828c01610f72565b985050602061117d8b828c01610f33565b975050604061118e8b828c01610f5d565b965050606061119f8b828c01610f33565b95505060806111b08b828c01611098565b94505060a06111c18b828c01611098565b93505060c06111d28b828c01611098565b92505060e06111e38b828c01611098565b9150509295985092959890939650565b600060c0828403121561120557600080fd5b600061121384828501610f9c565b91505092915050565b60006060828403121561122e57600080fd5b600061123c84828501611038565b91505092915050565b60006020828403121561125757600080fd5b6000611265848285016110ad565b91505092915050565b611277816115ea565b82525050565b611286816115fc565b82525050565b6000611297826114d1565b6112a181856114dc565b93506112b1818560208601611682565b6112ba816117d4565b840191505092915050565b600081546112d2816116b5565b6112dc81866114ed565b945060018216600081146112f757600181146113085761133b565b60ff1983168652818601935061133b565b611311856114bc565b60005b8381101561133357815481890152600182019150602081019050611314565b838801955050505b50505092915050565b61134d81611661565b82525050565b6000611360602e836114f8565b915061136b826117e5565b604082019050919050565b61137f8161163a565b82525050565b600061139182846112c5565b915081905092915050565b60006020820190506113b1600083018461126e565b92915050565b60006040820190506113cc600083018561126e565b6113d9602083018461126e565b9392505050565b60006040820190506113f5600083018561127d565b8181036020830152611407818461128c565b90509392505050565b60006020820190506114256000830184611344565b92915050565b6000602082019050818103600083015261144481611353565b9050919050565b60006020820190506114606000830184611376565b92915050565b6000611470611481565b905061147c82826116e7565b919050565b6000604051905090565b600067ffffffffffffffff8211156114a6576114a56117a5565b5b6114af826117d4565b9050602081019050919050565b60008190508160005260206000209050919050565b600081519050919050565b600082825260208201905092915050565b600081905092915050565b600082825260208201905092915050565b60006115148261163a565b915061151f8361163a565b9250827fffffffffffffffffffffffffffffffffffffffffffffffffffffffffffffffff0382111561155457611553611718565b5b828201905092915050565b600061156a8261163a565b91506115758361163a565b92508261158557611584611747565b5b828204905092915050565b600061159b8261163a565b91506115a68361163a565b9250817fffffffffffffffffffffffffffffffffffffffffffffffffffffffffffffffff04831182151516156115df576115de611718565b5b828202905092915050565b60006115f58261161a565b9050919050565b60008115159050919050565b6000611613826115ea565b9050919050565b600073ffffffffffffffffffffffffffffffffffffffff82169050919050565b6000819050919050565b600063ffffffff82169050919050565b600060ff82169050919050565b600061166c82611654565b9050919050565b82818337600083830152505050565b60005b838110156116a0578082015181840152602081019050611685565b838111156116af576000848401525b50505050565b600060028204905060018216806116cd57607f821691505b602082108114156116e1576116e0611776565b5b50919050565b6116f0826117d4565b810181811067ffffffffffffffff8211171561170f5761170e6117a5565b5b80604052505050565b7f4e487b7100000000000000000000000000000000000000000000000000000000600052601160045260246000fd5b7f4e487b7100000000000000000000000000000000000000000000000000000000600052601260045260246000fd5b7f4e487b7100000000000000000000000000000000000000000000000000000000600052602260045260246000fd5b7f4e487b7100000000000000000000000000000000000000000000000000000000600052604160045260246000fd5b6000601f19601f8301169050919050565b7f496e697469616c697a61626c653a20636f6e747261637420697320616c72656160008201527f647920696e697469616c697a6564000000000000000000000000000000000000602082015250565b61183d816115ea565b811461184857600080fd5b50565b61185481611608565b811461185f57600080fd5b50565b61186b8161163a565b811461187657600080fd5b50565b61188281611644565b811461188d57600080fd5b5056fea26469706673582212200744fa49ea18d43c81328324ab72cce0e0a2ac8a99202bfb8011a8a725e7100164736f6c63430008040033",
  "devdoc": {
    "kind": "dev",
    "methods": {},
    "version": 1
  },
  "userdoc": {
    "kind": "user",
    "methods": {},
    "version": 1
  },
  "storageLayout": {
    "storage": [
      {
        "astId": 6,
        "contract": "contracts/MainnetResolver.sol:MainnetResolver",
        "label": "_initialized",
        "offset": 0,
        "slot": "0",
        "type": "t_uint8"
      },
      {
        "astId": 9,
        "contract": "contracts/MainnetResolver.sol:MainnetResolver",
        "label": "_initializing",
        "offset": 1,
        "slot": "0",
        "type": "t_bool"
      },
      {
        "astId": 1184,
        "contract": "contracts/MainnetResolver.sol:MainnetResolver",
        "label": "protocols",
        "offset": 0,
        "slot": "1",
        "type": "t_mapping(t_address,t_struct(Protocol)1179_storage)"
      },
      {
        "astId": 1186,
        "contract": "contracts/MainnetResolver.sol:MainnetResolver",
        "label": "gov",
        "offset": 0,
        "slot": "2",
        "type": "t_address"
      }
    ],
    "types": {
      "t_address": {
        "encoding": "inplace",
        "label": "address",
        "numberOfBytes": "20"
      },
      "t_bool": {
        "encoding": "inplace",
        "label": "bool",
        "numberOfBytes": "1"
      },
      "t_contract(IERC20)219": {
        "encoding": "inplace",
        "label": "contract IERC20",
        "numberOfBytes": "20"
      },
      "t_mapping(t_address,t_struct(Protocol)1179_storage)": {
        "encoding": "mapping",
        "key": "t_address",
        "label": "mapping(address => struct Resolver.Protocol)",
        "numberOfBytes": "32",
        "value": "t_struct(Protocol)1179_storage"
      },
      "t_string_storage": {
        "encoding": "bytes",
        "label": "string",
        "numberOfBytes": "32"
      },
      "t_struct(Protocol)1179_storage": {
        "encoding": "inplace",
        "label": "struct Resolver.Protocol",
        "members": [
          {
            "astId": 1161,
            "contract": "contracts/MainnetResolver.sol:MainnetResolver",
            "label": "name",
            "offset": 0,
            "slot": "0",
            "type": "t_string_storage"
          },
          {
            "astId": 1164,
            "contract": "contracts/MainnetResolver.sol:MainnetResolver",
            "label": "steak",
            "offset": 0,
            "slot": "1",
            "type": "t_contract(IERC20)219"
          },
          {
            "astId": 1166,
            "contract": "contracts/MainnetResolver.sol:MainnetResolver",
            "label": "stakingContract",
            "offset": 0,
            "slot": "2",
            "type": "t_address"
          },
          {
            "astId": 1168,
            "contract": "contracts/MainnetResolver.sol:MainnetResolver",
            "label": "depositInterval",
            "offset": 0,
            "slot": "3",
            "type": "t_uint256"
          },
          {
            "astId": 1170,
            "contract": "contracts/MainnetResolver.sol:MainnetResolver",
            "label": "depositThreshold",
            "offset": 0,
            "slot": "4",
            "type": "t_uint256"
          },
          {
            "astId": 1172,
            "contract": "contracts/MainnetResolver.sol:MainnetResolver",
            "label": "lastDeposit",
            "offset": 0,
            "slot": "5",
            "type": "t_uint256"
          },
          {
            "astId": 1174,
            "contract": "contracts/MainnetResolver.sol:MainnetResolver",
            "label": "rebaseInternval",
            "offset": 0,
            "slot": "6",
            "type": "t_uint256"
          },
          {
            "astId": 1176,
            "contract": "contracts/MainnetResolver.sol:MainnetResolver",
            "label": "rebaseThreshold",
            "offset": 0,
            "slot": "7",
            "type": "t_uint256"
          },
          {
            "astId": 1178,
            "contract": "contracts/MainnetResolver.sol:MainnetResolver",
            "label": "lastRebase",
            "offset": 0,
            "slot": "8",
            "type": "t_uint256"
          }
        ],
        "numberOfBytes": "288"
      },
      "t_uint256": {
        "encoding": "inplace",
        "label": "uint256",
        "numberOfBytes": "32"
      },
      "t_uint8": {
        "encoding": "inplace",
        "label": "uint8",
        "numberOfBytes": "1"
      }
    }
  }
}