{
  "address": "0x572132dBF886B392039c606A8DB99A9A7c987d7a",
  "abi": [
    {
      "anonymous": false,
      "inputs": [
        {
          "indexed": false,
          "internalType": "uint8",
          "name": "version",
          "type": "uint8"
        }
      ],
      "name": "Initialized",
      "type": "event"
    },
    {
      "inputs": [
        {
          "internalType": "address",
          "name": "_tenderizer",
          "type": "address"
        }
      ],
      "name": "depositChecker",
      "outputs": [
        {
          "internalType": "bool",
          "name": "canExec",
          "type": "bool"
        },
        {
          "internalType": "bytes",
          "name": "execPayload",
          "type": "bytes"
        }
      ],
      "stateMutability": "nonpayable",
      "type": "function"
    },
    {
      "inputs": [],
      "name": "initialize",
      "outputs": [],
      "stateMutability": "nonpayable",
      "type": "function"
    },
    {
      "inputs": [
        {
          "internalType": "address",
          "name": "_tenderizer",
          "type": "address"
        }
      ],
      "name": "rebaseChecker",
      "outputs": [
        {
          "internalType": "bool",
          "name": "canExec",
          "type": "bool"
        },
        {
          "internalType": "bytes",
          "name": "execPayload",
          "type": "bytes"
        }
      ],
      "stateMutability": "nonpayable",
      "type": "function"
    },
    {
      "inputs": [
        {
          "internalType": "string",
          "name": "_name",
          "type": "string"
        },
        {
          "internalType": "address",
          "name": "_tenderizer",
          "type": "address"
        },
        {
          "internalType": "contract IERC20",
          "name": "_steak",
          "type": "address"
        },
        {
          "internalType": "address",
          "name": "_stakingContract",
          "type": "address"
        },
        {
          "internalType": "uint256",
          "name": "_depositInterval",
          "type": "uint256"
        },
        {
          "internalType": "uint256",
          "name": "_depositThreshold",
          "type": "uint256"
        },
        {
          "internalType": "uint256",
          "name": "_rebaseInterval",
          "type": "uint256"
        },
        {
          "internalType": "uint256",
          "name": "_rebaseThreshold",
          "type": "uint256"
        }
      ],
      "name": "register",
      "outputs": [],
      "stateMutability": "nonpayable",
      "type": "function"
    },
    {
      "inputs": [
        {
          "internalType": "address",
          "name": "_gov",
          "type": "address"
        }
      ],
      "name": "setGov",
      "outputs": [],
      "stateMutability": "nonpayable",
      "type": "function"
    }
  ],
  "transactionHash": "0x17fd44ff3db9788ad9de67b4408d4e5185946eddddbdf4298fa55a16ab54a18f",
  "args": [],
  "numDeployments": 1,
  "solcInputHash": "361e6b5d503dbf332455e0b993967ac5",
  "bytecode": "0x608060405234801561001057600080fd5b506119d9806100206000396000f3fe608060405234801561001057600080fd5b50600436106100575760003560e01c80631ef4a23d1461005c57806370fae560146100785780638129fc1c146100a9578063a679912f146100b3578063cfad57a2146100e4575b600080fd5b610076600480360381019061007191906111a0565b610100565b005b610092600480360381019061008d919061114e565b610310565b6040516100a092919061146b565b60405180910390f35b6100b16104b7565b005b6100cd60048036038101906100c8919061114e565b61058c565b6040516100db92919061146b565b60405180910390f35b6100fe60048036038101906100f9919061114e565b610b87565b005b603460009054906101000a900473ffffffffffffffffffffffffffffffffffffffff1673ffffffffffffffffffffffffffffffffffffffff163373ffffffffffffffffffffffffffffffffffffffff161461015a57600080fd5b6040518061012001604052808981526020018773ffffffffffffffffffffffffffffffffffffffff1681526020018673ffffffffffffffffffffffffffffffffffffffff16815260200185815260200184815260200185426101bc919061167a565b815260200183815260200182815260200183426101d9919061167a565b815250603360008973ffffffffffffffffffffffffffffffffffffffff1673ffffffffffffffffffffffffffffffffffffffff1681526020019081526020016000206000820151816000019080519060200190610237929190610ec9565b5060208201518160010160006101000a81548173ffffffffffffffffffffffffffffffffffffffff021916908373ffffffffffffffffffffffffffffffffffffffff16021790555060408201518160020160006101000a81548173ffffffffffffffffffffffffffffffffffffffff021916908373ffffffffffffffffffffffffffffffffffffffff160217905550606082015181600301556080820151816004015560a0820151816005015560c0820151816006015560e0820151816007015561010082015181600801559050505050505050505050565b600060606000603360008573ffffffffffffffffffffffffffffffffffffffff1673ffffffffffffffffffffffffffffffffffffffff1681526020019081526020016000209050428160030154826005015461036c9190611599565b111561037857506104b2565b60008160010160009054906101000a900473ffffffffffffffffffffffffffffffffffffffff1673ffffffffffffffffffffffffffffffffffffffff166370a08231866040518263ffffffff1660e01b81526004016103d79190611427565b60206040518083038186803b1580156103ef57600080fd5b505afa158015610403573d6000803e3d6000fd5b505050506040513d601f19601f8201168201806040525081019061042791906112bc565b9050816004015481106104a6576001935063372500ab60e01b604051602401604051602081830303815290604052907bffffffffffffffffffffffffffffffffffffffffffffffffffffffff19166020820180517bffffffffffffffffffffffffffffffffffffffffffffffffffffffff838183161783525050505092505b42826005018190555050505b915091565b60006104c36001610c25565b905080156104e7576001600060016101000a81548160ff0219169083151502179055505b6104ef610d15565b33603460006101000a81548173ffffffffffffffffffffffffffffffffffffffff021916908373ffffffffffffffffffffffffffffffffffffffff16021790555080156105895760008060016101000a81548160ff0219169083151502179055507f7f26b83ff96e1f2b6a682f133852f6798a09c465da95921460cefb38474024986001604051610580919061149b565b60405180910390a15b50565b600060606000603360008573ffffffffffffffffffffffffffffffffffffffff1673ffffffffffffffffffffffffffffffffffffffff168152602001908152602001600020905042816006015482600801546105e89190611599565b11156105f45750610b82565b600084905060008173ffffffffffffffffffffffffffffffffffffffff16633ae732596040518163ffffffff1660e01b815260040160206040518083038186803b15801561064157600080fd5b505afa158015610655573d6000803e3d6000fd5b505050506040513d601f19601f8201168201806040525081019061067991906112bc565b905060007ff33f789e3939d11e1b15e7342d3161b39f98259904e8ebdc1da58ce84a17f50960001b846000016040516106b29190611410565b604051809103902014156108c75760008373ffffffffffffffffffffffffffffffffffffffff1663d70754ec6040518163ffffffff1660e01b815260040160206040518083038186803b15801561070857600080fd5b505afa15801561071c573d6000803e3d6000fd5b505050506040513d601f19601f820116820180604052508101906107409190611177565b905060008560020160009054906101000a900473ffffffffffffffffffffffffffffffffffffffff16905060008173ffffffffffffffffffffffffffffffffffffffff166315049a5a84306040518363ffffffff1660e01b81526004016107a8929190611442565b60606040518083038186803b1580156107c057600080fd5b505afa1580156107d4573d6000803e3d6000fd5b505050506040513d601f19601f820116820180604052508101906107f89190611293565b905060008273ffffffffffffffffffffffffffffffffffffffff166392511c8f856040518263ffffffff1660e01b81526004016108359190611427565b60c06040518083038186803b15801561084d57600080fd5b505afa158015610861573d6000803e3d6000fd5b505050506040513d601f19601f82011682018060405250810190610885919061126a565b905060008260000151905060008260a0015190506000836080015190508181846108af9190611620565b6108b991906115ef565b975050505050505050610aeb565b7fbf92ffa8d618cd090d960a5b3cb58c78332d37eedf59819530a17714aa2dc74c60001b846000016040516108fc9190611410565b604051809103902014156109c45760008460020160009054906101000a900473ffffffffffffffffffffffffffffffffffffffff1690508073ffffffffffffffffffffffffffffffffffffffff1663b0303b75306040518263ffffffff1660e01b815260040161096c9190611427565b60206040518083038186803b15801561098457600080fd5b505afa158015610998573d6000803e3d6000fd5b505050506040513d601f19601f820116820180604052508101906109bc91906112bc565b915050610aea565b7fe0323cd44c3bff8ae1a6f6bb89d41ecaa34bcb9eab6e20fe02a77f37f7344b8360001b846000016040516109f99190611410565b60405180910390201415610ae95760008460020160009054906101000a900473ffffffffffffffffffffffffffffffffffffffff16905060008173ffffffffffffffffffffffffffffffffffffffff166370a08231306040518263ffffffff1660e01b8152600401610a6b9190611427565b60206040518083038186803b158015610a8357600080fd5b505afa158015610a97573d6000803e3d6000fd5b505050506040513d601f19601f82011682018060405250810190610abb91906112bc565b9050610ac682610d66565b610acf83610e0a565b82610ada9190611620565b610ae491906115ef565b925050505b5b5b836007015482610afb9190611599565b811115610b74576001955063372500ab60e01b604051602401604051602081830303815290604052907bffffffffffffffffffffffffffffffffffffffffffffffffffffffff19166020820180517bffffffffffffffffffffffffffffffffffffffffffffffffffffffff838183161783525050505094505b428460080181905550505050505b915091565b603460009054906101000a900473ffffffffffffffffffffffffffffffffffffffff1673ffffffffffffffffffffffffffffffffffffffff163373ffffffffffffffffffffffffffffffffffffffff1614610be157600080fd5b80603460006101000a81548173ffffffffffffffffffffffffffffffffffffffff021916908373ffffffffffffffffffffffffffffffffffffffff16021790555050565b60008060019054906101000a900460ff1615610c9c5760018260ff16148015610c545750610c5230610ea6565b155b610c93576040517f08c379a0000000000000000000000000000000000000000000000000000000008152600401610c8a906114b6565b60405180910390fd5b60009050610d10565b8160ff1660008054906101000a900460ff1660ff1610610cf1576040517f08c379a0000000000000000000000000000000000000000000000000000000008152600401610ce8906114b6565b60405180910390fd5b816000806101000a81548160ff021916908360ff160217905550600190505b919050565b600060019054906101000a900460ff16610d64576040517f08c379a0000000000000000000000000000000000000000000000000000000008152600401610d5b906114d6565b60405180910390fd5b565b600060088273ffffffffffffffffffffffffffffffffffffffff16635c5f7dae6040518163ffffffff1660e01b815260040160206040518083038186803b158015610db057600080fd5b505afa158015610dc4573d6000803e3d6000fd5b505050506040513d601f19601f82011682018060405250810190610de891906112bc565b10610e00576c01431e0fae6d7217caa0000000610e03565b60645b9050919050565b6000808273ffffffffffffffffffffffffffffffffffffffff16633ba0b9a96040518163ffffffff1660e01b815260040160206040518083038186803b158015610e5357600080fd5b505afa158015610e67573d6000803e3d6000fd5b505050506040513d601f19601f82011682018060405250810190610e8b91906112bc565b905060008114610e9b5780610e9e565b60015b915050919050565b6000808273ffffffffffffffffffffffffffffffffffffffff163b119050919050565b828054610ed590611779565b90600052602060002090601f016020900481019282610ef75760008555610f3e565b82601f10610f1057805160ff1916838001178555610f3e565b82800160010185558215610f3e579182015b82811115610f3d578251825591602001919060010190610f22565b5b509050610f4b9190610f4f565b5090565b5b80821115610f68576000816000905550600101610f50565b5090565b6000610f7f610f7a8461151b565b6114f6565b905082815260208101848484011115610f9757600080fd5b610fa2848285611737565b509392505050565b600081359050610fb981611947565b92915050565b600081519050610fce81611947565b92915050565b600081359050610fe38161195e565b92915050565b600082601f830112610ffa57600080fd5b813561100a848260208601610f6c565b91505092915050565b600060c0828403121561102557600080fd5b61102f60c06114f6565b9050600061103f84828501611139565b600083015250602061105384828501611139565b602083015250604061106784828501611139565b604083015250606061107b84828501611124565b606083015250608061108f84828501611124565b60808301525060a06110a384828501611124565b60a08301525092915050565b6000606082840312156110c157600080fd5b6110cb60606114f6565b905060006110db84828501611124565b60008301525060206110ef84828501611124565b602083015250604061110384828501611124565b60408301525092915050565b60008135905061111e81611975565b92915050565b60008151905061113381611975565b92915050565b6000815190506111488161198c565b92915050565b60006020828403121561116057600080fd5b600061116e84828501610faa565b91505092915050565b60006020828403121561118957600080fd5b600061119784828501610fbf565b91505092915050565b600080600080600080600080610100898b0312156111bd57600080fd5b600089013567ffffffffffffffff8111156111d757600080fd5b6111e38b828c01610fe9565b98505060206111f48b828c01610faa565b97505060406112058b828c01610fd4565b96505060606112168b828c01610faa565b95505060806112278b828c0161110f565b94505060a06112388b828c0161110f565b93505060c06112498b828c0161110f565b92505060e061125a8b828c0161110f565b9150509295985092959890939650565b600060c0828403121561127c57600080fd5b600061128a84828501611013565b91505092915050565b6000606082840312156112a557600080fd5b60006112b3848285016110af565b91505092915050565b6000602082840312156112ce57600080fd5b60006112dc84828501611124565b91505092915050565b6112ee816116ae565b82525050565b6112fd816116c0565b82525050565b600061130e82611561565b611318818561156c565b9350611328818560208601611746565b61133181611898565b840191505092915050565b6000815461134981611779565b611353818661157d565b9450600182166000811461136e576001811461137f576113b2565b60ff198316865281860193506113b2565b6113888561154c565b60005b838110156113aa5781548189015260018201915060208101905061138b565b838801955050505b50505092915050565b6113c481611725565b82525050565b60006113d7602e83611588565b91506113e2826118a9565b604082019050919050565b60006113fa602b83611588565b9150611405826118f8565b604082019050919050565b600061141c828461133c565b915081905092915050565b600060208201905061143c60008301846112e5565b92915050565b600060408201905061145760008301856112e5565b61146460208301846112e5565b9392505050565b600060408201905061148060008301856112f4565b81810360208301526114928184611303565b90509392505050565b60006020820190506114b060008301846113bb565b92915050565b600060208201905081810360008301526114cf816113ca565b9050919050565b600060208201905081810360008301526114ef816113ed565b9050919050565b6000611500611511565b905061150c82826117ab565b919050565b6000604051905090565b600067ffffffffffffffff82111561153657611535611869565b5b61153f82611898565b9050602081019050919050565b60008190508160005260206000209050919050565b600081519050919050565b600082825260208201905092915050565b600081905092915050565b600082825260208201905092915050565b60006115a4826116fe565b91506115af836116fe565b9250827fffffffffffffffffffffffffffffffffffffffffffffffffffffffffffffffff038211156115e4576115e36117dc565b5b828201905092915050565b60006115fa826116fe565b9150611605836116fe565b9250826116155761161461180b565b5b828204905092915050565b600061162b826116fe565b9150611636836116fe565b9250817fffffffffffffffffffffffffffffffffffffffffffffffffffffffffffffffff048311821515161561166f5761166e6117dc565b5b828202905092915050565b6000611685826116fe565b9150611690836116fe565b9250828210156116a3576116a26117dc565b5b828203905092915050565b60006116b9826116de565b9050919050565b60008115159050919050565b60006116d7826116ae565b9050919050565b600073ffffffffffffffffffffffffffffffffffffffff82169050919050565b6000819050919050565b600063ffffffff82169050919050565b600060ff82169050919050565b600061173082611718565b9050919050565b82818337600083830152505050565b60005b83811015611764578082015181840152602081019050611749565b83811115611773576000848401525b50505050565b6000600282049050600182168061179157607f821691505b602082108114156117a5576117a461183a565b5b50919050565b6117b482611898565b810181811067ffffffffffffffff821117156117d3576117d2611869565b5b80604052505050565b7f4e487b7100000000000000000000000000000000000000000000000000000000600052601160045260246000fd5b7f4e487b7100000000000000000000000000000000000000000000000000000000600052601260045260246000fd5b7f4e487b7100000000000000000000000000000000000000000000000000000000600052602260045260246000fd5b7f4e487b7100000000000000000000000000000000000000000000000000000000600052604160045260246000fd5b6000601f19601f8301169050919050565b7f496e697469616c697a61626c653a20636f6e747261637420697320616c72656160008201527f647920696e697469616c697a6564000000000000000000000000000000000000602082015250565b7f496e697469616c697a61626c653a20636f6e7472616374206973206e6f74206960008201527f6e697469616c697a696e67000000000000000000000000000000000000000000602082015250565b611950816116ae565b811461195b57600080fd5b50565b611967816116cc565b811461197257600080fd5b50565b61197e816116fe565b811461198957600080fd5b50565b61199581611708565b81146119a057600080fd5b5056fea264697066735822122065f5ea991d914d4b3fb9d5627ebc65f8200454418f8cec0055a9ad004a1f8e3564736f6c63430008040033",
  "devdoc": {
    "kind": "dev",
    "methods": {},
    "version": 1
  },
  "userdoc": {
    "kind": "user",
    "methods": {},
    "version": 1
  },
  "storageLayout": {
    "storage": [
      {
        "astId": 6,
        "contract": "contracts/MainnetResolver.sol:MainnetResolver",
        "label": "_initialized",
        "offset": 0,
        "slot": "0",
        "type": "t_uint8"
      },
      {
        "astId": 9,
        "contract": "contracts/MainnetResolver.sol:MainnetResolver",
        "label": "_initializing",
        "offset": 1,
        "slot": "0",
        "type": "t_bool"
      },
      {
        "astId": 425,
        "contract": "contracts/MainnetResolver.sol:MainnetResolver",
        "label": "__gap",
        "offset": 0,
        "slot": "1",
        "type": "t_array(t_uint256)50_storage"
      },
      {
        "astId": 1153,
        "contract": "contracts/MainnetResolver.sol:MainnetResolver",
        "label": "protocols",
        "offset": 0,
        "slot": "51",
        "type": "t_mapping(t_address,t_struct(Protocol)1148_storage)"
      },
      {
        "astId": 1155,
        "contract": "contracts/MainnetResolver.sol:MainnetResolver",
        "label": "gov",
        "offset": 0,
        "slot": "52",
        "type": "t_address"
      }
    ],
    "types": {
      "t_address": {
        "encoding": "inplace",
        "label": "address",
        "numberOfBytes": "20"
      },
      "t_array(t_uint256)50_storage": {
        "base": "t_uint256",
        "encoding": "inplace",
        "label": "uint256[50]",
        "numberOfBytes": "1600"
      },
      "t_bool": {
        "encoding": "inplace",
        "label": "bool",
        "numberOfBytes": "1"
      },
      "t_contract(IERC20)504": {
        "encoding": "inplace",
        "label": "contract IERC20",
        "numberOfBytes": "20"
      },
      "t_mapping(t_address,t_struct(Protocol)1148_storage)": {
        "encoding": "mapping",
        "key": "t_address",
        "label": "mapping(address => struct Resolver.Protocol)",
        "numberOfBytes": "32",
        "value": "t_struct(Protocol)1148_storage"
      },
      "t_string_storage": {
        "encoding": "bytes",
        "label": "string",
        "numberOfBytes": "32"
      },
      "t_struct(Protocol)1148_storage": {
        "encoding": "inplace",
        "label": "struct Resolver.Protocol",
        "members": [
          {
            "astId": 1130,
            "contract": "contracts/MainnetResolver.sol:MainnetResolver",
            "label": "name",
            "offset": 0,
            "slot": "0",
            "type": "t_string_storage"
          },
          {
            "astId": 1133,
            "contract": "contracts/MainnetResolver.sol:MainnetResolver",
            "label": "steak",
            "offset": 0,
            "slot": "1",
            "type": "t_contract(IERC20)504"
          },
          {
            "astId": 1135,
            "contract": "contracts/MainnetResolver.sol:MainnetResolver",
            "label": "stakingContract",
            "offset": 0,
            "slot": "2",
            "type": "t_address"
          },
          {
            "astId": 1137,
            "contract": "contracts/MainnetResolver.sol:MainnetResolver",
            "label": "depositInterval",
            "offset": 0,
            "slot": "3",
            "type": "t_uint256"
          },
          {
            "astId": 1139,
            "contract": "contracts/MainnetResolver.sol:MainnetResolver",
            "label": "depositThreshold",
            "offset": 0,
            "slot": "4",
            "type": "t_uint256"
          },
          {
            "astId": 1141,
            "contract": "contracts/MainnetResolver.sol:MainnetResolver",
            "label": "lastDeposit",
            "offset": 0,
            "slot": "5",
            "type": "t_uint256"
          },
          {
            "astId": 1143,
            "contract": "contracts/MainnetResolver.sol:MainnetResolver",
            "label": "rebaseInterval",
            "offset": 0,
            "slot": "6",
            "type": "t_uint256"
          },
          {
            "astId": 1145,
            "contract": "contracts/MainnetResolver.sol:MainnetResolver",
            "label": "rebaseThreshold",
            "offset": 0,
            "slot": "7",
            "type": "t_uint256"
          },
          {
            "astId": 1147,
            "contract": "contracts/MainnetResolver.sol:MainnetResolver",
            "label": "lastRebase",
            "offset": 0,
            "slot": "8",
            "type": "t_uint256"
          }
        ],
        "numberOfBytes": "288"
      },
      "t_uint256": {
        "encoding": "inplace",
        "label": "uint256",
        "numberOfBytes": "32"
      },
      "t_uint8": {
        "encoding": "inplace",
        "label": "uint8",
        "numberOfBytes": "1"
      }
    }
  }
}