{
  "address": "0xcE1C1335F70A2f432A877d22DBaA84ccb7725444",
  "abi": [
    {
      "anonymous": false,
      "inputs": [
        {
          "indexed": false,
          "internalType": "uint8",
          "name": "version",
          "type": "uint8"
        }
      ],
      "name": "Initialized",
      "type": "event"
    },
    {
      "inputs": [
        {
          "internalType": "address",
          "name": "_tenderizer",
          "type": "address"
        }
      ],
      "name": "claimRewardsExecutor",
      "outputs": [],
      "stateMutability": "nonpayable",
      "type": "function"
    },
    {
      "inputs": [],
      "name": "initialize",
      "outputs": [],
      "stateMutability": "nonpayable",
      "type": "function"
    },
    {
      "inputs": [
        {
          "internalType": "address",
          "name": "_tenderizer",
          "type": "address"
        }
      ],
      "name": "rebaseChecker",
      "outputs": [
        {
          "internalType": "bool",
          "name": "canExec",
          "type": "bool"
        },
        {
          "internalType": "bytes",
          "name": "execPayload",
          "type": "bytes"
        }
      ],
      "stateMutability": "view",
      "type": "function"
    },
    {
      "inputs": [
        {
          "internalType": "string",
          "name": "_name",
          "type": "string"
        },
        {
          "internalType": "address",
          "name": "_tenderizer",
          "type": "address"
        },
        {
          "internalType": "contract IERC20",
          "name": "_steak",
          "type": "address"
        },
        {
          "internalType": "address",
          "name": "_stakingContract",
          "type": "address"
        },
        {
          "internalType": "uint256",
          "name": "_depositInterval",
          "type": "uint256"
        },
        {
          "internalType": "uint256",
          "name": "_depositThreshold",
          "type": "uint256"
        },
        {
          "internalType": "uint256",
          "name": "_rebaseInterval",
          "type": "uint256"
        },
        {
          "internalType": "uint256",
          "name": "_rebaseThreshold",
          "type": "uint256"
        }
      ],
      "name": "register",
      "outputs": [],
      "stateMutability": "nonpayable",
      "type": "function"
    },
    {
      "inputs": [
        {
          "internalType": "address",
          "name": "_gov",
          "type": "address"
        }
      ],
      "name": "setGov",
      "outputs": [],
      "stateMutability": "nonpayable",
      "type": "function"
    }
  ],
  "transactionHash": "0x286105b27bd764c1ce44eb0dea01249d975a23af1d94685b57f427b20a2e5b87",
  "args": [],
  "numDeployments": 1,
  "solcInputHash": "e8dc8365205e5abbfd8c1ee862bf2b6b",
  "bytecode": "0x608060405234801561001057600080fd5b506119fc806100206000396000f3fe608060405234801561001057600080fd5b50600436106100575760003560e01c8063033990e51461005c5780631ef4a23d146100785780638129fc1c14610094578063a679912f1461009e578063cfad57a2146100cf575b600080fd5b61007660048036038101906100719190611171565b6100eb565b005b610092600480360381019061008d91906111c3565b61019b565b005b61009c61038f565b005b6100b860048036038101906100b39190611171565b610464565b6040516100c692919061148e565b60405180910390f35b6100e960048036038101906100e49190611171565b610a78565b005b600081905042603360008473ffffffffffffffffffffffffffffffffffffffff1673ffffffffffffffffffffffffffffffffffffffff168152602001908152602001600020600701819055508073ffffffffffffffffffffffffffffffffffffffff1663372500ab6040518163ffffffff1660e01b8152600401600060405180830381600087803b15801561017f57600080fd5b505af1158015610193573d6000803e3d6000fd5b505050505050565b603460009054906101000a900473ffffffffffffffffffffffffffffffffffffffff1673ffffffffffffffffffffffffffffffffffffffff163373ffffffffffffffffffffffffffffffffffffffff16146101f557600080fd5b6040518061010001604052808981526020018773ffffffffffffffffffffffffffffffffffffffff1681526020018673ffffffffffffffffffffffffffffffffffffffff1681526020018581526020018481526020018381526020018281526020018342610263919061169d565b815250603360008973ffffffffffffffffffffffffffffffffffffffff1673ffffffffffffffffffffffffffffffffffffffff16815260200190815260200160002060008201518160000190805190602001906102c1929190610eec565b5060208201518160010160006101000a81548173ffffffffffffffffffffffffffffffffffffffff021916908373ffffffffffffffffffffffffffffffffffffffff16021790555060408201518160020160006101000a81548173ffffffffffffffffffffffffffffffffffffffff021916908373ffffffffffffffffffffffffffffffffffffffff160217905550606082015181600301556080820151816004015560a0820151816005015560c0820151816006015560e082015181600701559050505050505050505050565b600061039b6001610b16565b905080156103bf576001600060016101000a81548160ff0219169083151502179055505b6103c7610c06565b33603460006101000a81548173ffffffffffffffffffffffffffffffffffffffff021916908373ffffffffffffffffffffffffffffffffffffffff16021790555080156104615760008060016101000a81548160ff0219169083151502179055507f7f26b83ff96e1f2b6a682f133852f6798a09c465da95921460cefb3847402498600160405161045891906114be565b60405180910390a15b50565b6000606063033990e560e01b83604051602401610481919061144a565b604051602081830303815290604052907bffffffffffffffffffffffffffffffffffffffffffffffffffffffff19166020820180517bffffffffffffffffffffffffffffffffffffffffffffffffffffffff838183161783525050505090506000603360008573ffffffffffffffffffffffffffffffffffffffff1673ffffffffffffffffffffffffffffffffffffffff168152602001908152602001600020905061052c84610c57565b9250821561053a5750610a73565b428160050154826007015461054f91906115bc565b111561055b5750610a73565b600084905060008173ffffffffffffffffffffffffffffffffffffffff16633ae732596040518163ffffffff1660e01b815260040160206040518083038186803b1580156105a857600080fd5b505afa1580156105bc573d6000803e3d6000fd5b505050506040513d601f19601f820116820180604052508101906105e091906112df565b905060007ff33f789e3939d11e1b15e7342d3161b39f98259904e8ebdc1da58ce84a17f50960001b846000016040516106199190611433565b6040518091039020141561082e5760008373ffffffffffffffffffffffffffffffffffffffff1663d70754ec6040518163ffffffff1660e01b815260040160206040518083038186803b15801561066f57600080fd5b505afa158015610683573d6000803e3d6000fd5b505050506040513d601f19601f820116820180604052508101906106a7919061119a565b905060008560020160009054906101000a900473ffffffffffffffffffffffffffffffffffffffff16905060008173ffffffffffffffffffffffffffffffffffffffff166315049a5a848c6040518363ffffffff1660e01b815260040161070f929190611465565b60606040518083038186803b15801561072757600080fd5b505afa15801561073b573d6000803e3d6000fd5b505050506040513d601f19601f8201168201806040525081019061075f91906112b6565b905060008273ffffffffffffffffffffffffffffffffffffffff166392511c8f856040518263ffffffff1660e01b815260040161079c919061144a565b60c06040518083038186803b1580156107b457600080fd5b505afa1580156107c8573d6000803e3d6000fd5b505050506040513d601f19601f820116820180604052508101906107ec919061128d565b905060008260000151905060008260a0015190506000836080015190508181846108169190611643565b6108209190611612565b975050505050505050610a52565b7fbf92ffa8d618cd090d960a5b3cb58c78332d37eedf59819530a17714aa2dc74c60001b846000016040516108639190611433565b6040518091039020141561092b5760008460020160009054906101000a900473ffffffffffffffffffffffffffffffffffffffff1690508073ffffffffffffffffffffffffffffffffffffffff1663b0303b75896040518263ffffffff1660e01b81526004016108d3919061144a565b60206040518083038186803b1580156108eb57600080fd5b505afa1580156108ff573d6000803e3d6000fd5b505050506040513d601f19601f8201168201806040525081019061092391906112df565b915050610a51565b7fe0323cd44c3bff8ae1a6f6bb89d41ecaa34bcb9eab6e20fe02a77f37f7344b8360001b846000016040516109609190611433565b60405180910390201415610a505760008460020160009054906101000a900473ffffffffffffffffffffffffffffffffffffffff16905060008173ffffffffffffffffffffffffffffffffffffffff166370a082318a6040518263ffffffff1660e01b81526004016109d2919061144a565b60206040518083038186803b1580156109ea57600080fd5b505afa1580156109fe573d6000803e3d6000fd5b505050506040513d601f19601f82011682018060405250810190610a2291906112df565b9050610a2d82610d89565b610a3683610e2d565b82610a419190611643565b610a4b9190611612565b925050505b5b5b836006015482610a6291906115bc565b811115610a6e57600195505b505050505b915091565b603460009054906101000a900473ffffffffffffffffffffffffffffffffffffffff1673ffffffffffffffffffffffffffffffffffffffff163373ffffffffffffffffffffffffffffffffffffffff1614610ad257600080fd5b80603460006101000a81548173ffffffffffffffffffffffffffffffffffffffff021916908373ffffffffffffffffffffffffffffffffffffffff16021790555050565b60008060019054906101000a900460ff1615610b8d5760018260ff16148015610b455750610b4330610ec9565b155b610b84576040517f08c379a0000000000000000000000000000000000000000000000000000000008152600401610b7b906114d9565b60405180910390fd5b60009050610c01565b8160ff1660008054906101000a900460ff1660ff1610610be2576040517f08c379a0000000000000000000000000000000000000000000000000000000008152600401610bd9906114d9565b60405180910390fd5b816000806101000a81548160ff021916908360ff160217905550600190505b919050565b600060019054906101000a900460ff16610c55576040517f08c379a0000000000000000000000000000000000000000000000000000000008152600401610c4c906114f9565b60405180910390fd5b565b600080603360008473ffffffffffffffffffffffffffffffffffffffff1673ffffffffffffffffffffffffffffffffffffffff16815260200190815260200160002090504281600301548260070154610cb091906115bc565b1115610cc0576000915050610d84565b60008160010160009054906101000a900473ffffffffffffffffffffffffffffffffffffffff1673ffffffffffffffffffffffffffffffffffffffff166370a08231856040518263ffffffff1660e01b8152600401610d1f919061144a565b60206040518083038186803b158015610d3757600080fd5b505afa158015610d4b573d6000803e3d6000fd5b505050506040513d601f19601f82011682018060405250810190610d6f91906112df565b905081600401548110610d8157600192505b50505b919050565b600060088273ffffffffffffffffffffffffffffffffffffffff16635c5f7dae6040518163ffffffff1660e01b815260040160206040518083038186803b158015610dd357600080fd5b505afa158015610de7573d6000803e3d6000fd5b505050506040513d601f19601f82011682018060405250810190610e0b91906112df565b10610e23576c01431e0fae6d7217caa0000000610e26565b60645b9050919050565b6000808273ffffffffffffffffffffffffffffffffffffffff16633ba0b9a96040518163ffffffff1660e01b815260040160206040518083038186803b158015610e7657600080fd5b505afa158015610e8a573d6000803e3d6000fd5b505050506040513d601f19601f82011682018060405250810190610eae91906112df565b905060008114610ebe5780610ec1565b60015b915050919050565b6000808273ffffffffffffffffffffffffffffffffffffffff163b119050919050565b828054610ef89061179c565b90600052602060002090601f016020900481019282610f1a5760008555610f61565b82601f10610f3357805160ff1916838001178555610f61565b82800160010185558215610f61579182015b82811115610f60578251825591602001919060010190610f45565b5b509050610f6e9190610f72565b5090565b5b80821115610f8b576000816000905550600101610f73565b5090565b6000610fa2610f9d8461153e565b611519565b905082815260208101848484011115610fba57600080fd5b610fc584828561175a565b509392505050565b600081359050610fdc8161196a565b92915050565b600081519050610ff18161196a565b92915050565b60008135905061100681611981565b92915050565b600082601f83011261101d57600080fd5b813561102d848260208601610f8f565b91505092915050565b600060c0828403121561104857600080fd5b61105260c0611519565b905060006110628482850161115c565b60008301525060206110768482850161115c565b602083015250604061108a8482850161115c565b604083015250606061109e84828501611147565b60608301525060806110b284828501611147565b60808301525060a06110c684828501611147565b60a08301525092915050565b6000606082840312156110e457600080fd5b6110ee6060611519565b905060006110fe84828501611147565b600083015250602061111284828501611147565b602083015250604061112684828501611147565b60408301525092915050565b60008135905061114181611998565b92915050565b60008151905061115681611998565b92915050565b60008151905061116b816119af565b92915050565b60006020828403121561118357600080fd5b600061119184828501610fcd565b91505092915050565b6000602082840312156111ac57600080fd5b60006111ba84828501610fe2565b91505092915050565b600080600080600080600080610100898b0312156111e057600080fd5b600089013567ffffffffffffffff8111156111fa57600080fd5b6112068b828c0161100c565b98505060206112178b828c01610fcd565b97505060406112288b828c01610ff7565b96505060606112398b828c01610fcd565b955050608061124a8b828c01611132565b94505060a061125b8b828c01611132565b93505060c061126c8b828c01611132565b92505060e061127d8b828c01611132565b9150509295985092959890939650565b600060c0828403121561129f57600080fd5b60006112ad84828501611036565b91505092915050565b6000606082840312156112c857600080fd5b60006112d6848285016110d2565b91505092915050565b6000602082840312156112f157600080fd5b60006112ff84828501611147565b91505092915050565b611311816116d1565b82525050565b611320816116e3565b82525050565b600061133182611584565b61133b818561158f565b935061134b818560208601611769565b611354816118bb565b840191505092915050565b6000815461136c8161179c565b61137681866115a0565b9450600182166000811461139157600181146113a2576113d5565b60ff198316865281860193506113d5565b6113ab8561156f565b60005b838110156113cd578154818901526001820191506020810190506113ae565b838801955050505b50505092915050565b6113e781611748565b82525050565b60006113fa602e836115ab565b9150611405826118cc565b604082019050919050565b600061141d602b836115ab565b91506114288261191b565b604082019050919050565b600061143f828461135f565b915081905092915050565b600060208201905061145f6000830184611308565b92915050565b600060408201905061147a6000830185611308565b6114876020830184611308565b9392505050565b60006040820190506114a36000830185611317565b81810360208301526114b58184611326565b90509392505050565b60006020820190506114d360008301846113de565b92915050565b600060208201905081810360008301526114f2816113ed565b9050919050565b6000602082019050818103600083015261151281611410565b9050919050565b6000611523611534565b905061152f82826117ce565b919050565b6000604051905090565b600067ffffffffffffffff8211156115595761155861188c565b5b611562826118bb565b9050602081019050919050565b60008190508160005260206000209050919050565b600081519050919050565b600082825260208201905092915050565b600081905092915050565b600082825260208201905092915050565b60006115c782611721565b91506115d283611721565b9250827fffffffffffffffffffffffffffffffffffffffffffffffffffffffffffffffff03821115611607576116066117ff565b5b828201905092915050565b600061161d82611721565b915061162883611721565b9250826116385761163761182e565b5b828204905092915050565b600061164e82611721565b915061165983611721565b9250817fffffffffffffffffffffffffffffffffffffffffffffffffffffffffffffffff0483118215151615611692576116916117ff565b5b828202905092915050565b60006116a882611721565b91506116b383611721565b9250828210156116c6576116c56117ff565b5b828203905092915050565b60006116dc82611701565b9050919050565b60008115159050919050565b60006116fa826116d1565b9050919050565b600073ffffffffffffffffffffffffffffffffffffffff82169050919050565b6000819050919050565b600063ffffffff82169050919050565b600060ff82169050919050565b60006117538261173b565b9050919050565b82818337600083830152505050565b60005b8381101561178757808201518184015260208101905061176c565b83811115611796576000848401525b50505050565b600060028204905060018216806117b457607f821691505b602082108114156117c8576117c761185d565b5b50919050565b6117d7826118bb565b810181811067ffffffffffffffff821117156117f6576117f561188c565b5b80604052505050565b7f4e487b7100000000000000000000000000000000000000000000000000000000600052601160045260246000fd5b7f4e487b7100000000000000000000000000000000000000000000000000000000600052601260045260246000fd5b7f4e487b7100000000000000000000000000000000000000000000000000000000600052602260045260246000fd5b7f4e487b7100000000000000000000000000000000000000000000000000000000600052604160045260246000fd5b6000601f19601f8301169050919050565b7f496e697469616c697a61626c653a20636f6e747261637420697320616c72656160008201527f647920696e697469616c697a6564000000000000000000000000000000000000602082015250565b7f496e697469616c697a61626c653a20636f6e7472616374206973206e6f74206960008201527f6e697469616c697a696e67000000000000000000000000000000000000000000602082015250565b611973816116d1565b811461197e57600080fd5b50565b61198a816116ef565b811461199557600080fd5b50565b6119a181611721565b81146119ac57600080fd5b50565b6119b88161172b565b81146119c357600080fd5b5056fea2646970667358221220263a802dec56cf28440a9b6f06bd07fd79b14d30132e4779616040894d6092af64736f6c63430008040033",
  "devdoc": {
    "kind": "dev",
    "methods": {},
    "version": 1
  },
  "userdoc": {
    "kind": "user",
    "methods": {},
    "version": 1
  },
  "storageLayout": {
    "storage": [
      {
        "astId": 6,
        "contract": "contracts/MainnetResolver.sol:MainnetResolver",
        "label": "_initialized",
        "offset": 0,
        "slot": "0",
        "type": "t_uint8"
      },
      {
        "astId": 9,
        "contract": "contracts/MainnetResolver.sol:MainnetResolver",
        "label": "_initializing",
        "offset": 1,
        "slot": "0",
        "type": "t_bool"
      },
      {
        "astId": 425,
        "contract": "contracts/MainnetResolver.sol:MainnetResolver",
        "label": "__gap",
        "offset": 0,
        "slot": "1",
        "type": "t_array(t_uint256)50_storage"
      },
      {
        "astId": 1087,
        "contract": "contracts/MainnetResolver.sol:MainnetResolver",
        "label": "protocols",
        "offset": 0,
        "slot": "51",
        "type": "t_mapping(t_address,t_struct(Protocol)1082_storage)"
      },
      {
        "astId": 1089,
        "contract": "contracts/MainnetResolver.sol:MainnetResolver",
        "label": "gov",
        "offset": 0,
        "slot": "52",
        "type": "t_address"
      }
    ],
    "types": {
      "t_address": {
        "encoding": "inplace",
        "label": "address",
        "numberOfBytes": "20"
      },
      "t_array(t_uint256)50_storage": {
        "base": "t_uint256",
        "encoding": "inplace",
        "label": "uint256[50]",
        "numberOfBytes": "1600"
      },
      "t_bool": {
        "encoding": "inplace",
        "label": "bool",
        "numberOfBytes": "1"
      },
      "t_contract(IERC20)504": {
        "encoding": "inplace",
        "label": "contract IERC20",
        "numberOfBytes": "20"
      },
      "t_mapping(t_address,t_struct(Protocol)1082_storage)": {
        "encoding": "mapping",
        "key": "t_address",
        "label": "mapping(address => struct Resolver.Protocol)",
        "numberOfBytes": "32",
        "value": "t_struct(Protocol)1082_storage"
      },
      "t_string_storage": {
        "encoding": "bytes",
        "label": "string",
        "numberOfBytes": "32"
      },
      "t_struct(Protocol)1082_storage": {
        "encoding": "inplace",
        "label": "struct Resolver.Protocol",
        "members": [
          {
            "astId": 1066,
            "contract": "contracts/MainnetResolver.sol:MainnetResolver",
            "label": "name",
            "offset": 0,
            "slot": "0",
            "type": "t_string_storage"
          },
          {
            "astId": 1069,
            "contract": "contracts/MainnetResolver.sol:MainnetResolver",
            "label": "steak",
            "offset": 0,
            "slot": "1",
            "type": "t_contract(IERC20)504"
          },
          {
            "astId": 1071,
            "contract": "contracts/MainnetResolver.sol:MainnetResolver",
            "label": "stakingContract",
            "offset": 0,
            "slot": "2",
            "type": "t_address"
          },
          {
            "astId": 1073,
            "contract": "contracts/MainnetResolver.sol:MainnetResolver",
            "label": "depositInterval",
            "offset": 0,
            "slot": "3",
            "type": "t_uint256"
          },
          {
            "astId": 1075,
            "contract": "contracts/MainnetResolver.sol:MainnetResolver",
            "label": "depositThreshold",
            "offset": 0,
            "slot": "4",
            "type": "t_uint256"
          },
          {
            "astId": 1077,
            "contract": "contracts/MainnetResolver.sol:MainnetResolver",
            "label": "rebaseInterval",
            "offset": 0,
            "slot": "5",
            "type": "t_uint256"
          },
          {
            "astId": 1079,
            "contract": "contracts/MainnetResolver.sol:MainnetResolver",
            "label": "rebaseThreshold",
            "offset": 0,
            "slot": "6",
            "type": "t_uint256"
          },
          {
            "astId": 1081,
            "contract": "contracts/MainnetResolver.sol:MainnetResolver",
            "label": "lastClaim",
            "offset": 0,
            "slot": "7",
            "type": "t_uint256"
          }
        ],
        "numberOfBytes": "256"
      },
      "t_uint256": {
        "encoding": "inplace",
        "label": "uint256",
        "numberOfBytes": "32"
      },
      "t_uint8": {
        "encoding": "inplace",
        "label": "uint8",
        "numberOfBytes": "1"
      }
    }
  }
}